{
  "contractName": "Lottery",
  "abi": [
    {
      "inputs": [],
      "stateMutability": "nonpayable",
      "type": "constructor"
    },
    {
      "inputs": [],
      "name": "manager",
      "outputs": [
        {
          "internalType": "address",
          "name": "",
          "type": "address"
        }
      ],
      "stateMutability": "view",
      "type": "function"
    },
    {
      "inputs": [
        {
          "internalType": "uint256",
          "name": "",
          "type": "uint256"
        }
      ],
      "name": "players",
      "outputs": [
        {
          "internalType": "address payable",
          "name": "",
          "type": "address"
        }
      ],
      "stateMutability": "view",
      "type": "function"
    },
    {
      "stateMutability": "payable",
      "type": "receive"
    },
    {
      "inputs": [],
      "name": "getBalance",
      "outputs": [
        {
          "internalType": "uint256",
          "name": "",
          "type": "uint256"
        }
      ],
      "stateMutability": "view",
      "type": "function"
    },
    {
      "inputs": [],
      "name": "RandomGenerator",
      "outputs": [
        {
          "internalType": "uint256",
          "name": "",
          "type": "uint256"
        }
      ],
      "stateMutability": "view",
      "type": "function"
    },
    {
      "inputs": [],
      "name": "pickWinner",
      "outputs": [],
      "stateMutability": "nonpayable",
      "type": "function"
    }
  ],
  "bytecode": "0x608060405234801561001057600080fd5b5033600160006101000a81548173ffffffffffffffffffffffffffffffffffffffff021916908373ffffffffffffffffffffffffffffffffffffffff1602179055506108a1806100616000396000f3fe60806040526004361061004e5760003560e01c806312065fe014610106578063481c6a75146101315780635d495aea1461015c57806360aa398d14610173578063f71d96cb1461019e57610101565b366101015767016345785d8a0000341461009d576040517f08c379a000000000000000000000000000000000000000000000000000000000815260040161009490610599565b60405180910390fd5b6000339080600181540180825580915050600190039060005260206000200160009091909190916101000a81548173ffffffffffffffffffffffffffffffffffffffff021916908373ffffffffffffffffffffffffffffffffffffffff1602179055005b600080fd5b34801561011257600080fd5b5061011b6101db565b60405161012891906105d2565b60405180910390f35b34801561013d57600080fd5b50610146610273565b604051610153919061062e565b60405180910390f35b34801561016857600080fd5b50610171610299565b005b34801561017f57600080fd5b5061018861041c565b60405161019591906105d2565b60405180910390f35b3480156101aa57600080fd5b506101c560048036038101906101c0919061067a565b610456565b6040516101d291906106c8565b60405180910390f35b6000600160009054906101000a900473ffffffffffffffffffffffffffffffffffffffff1673ffffffffffffffffffffffffffffffffffffffff163373ffffffffffffffffffffffffffffffffffffffff161461026d576040517f08c379a00000000000000000000000000000000000000000000000000000000081526004016102649061072f565b60405180910390fd5b47905090565b600160009054906101000a900473ffffffffffffffffffffffffffffffffffffffff1681565b600160009054906101000a900473ffffffffffffffffffffffffffffffffffffffff1673ffffffffffffffffffffffffffffffffffffffff163373ffffffffffffffffffffffffffffffffffffffff16146102f357600080fd5b6003600080549050101561030657600080fd5b600061031061041c565b905060008060008054905083610326919061077e565b90506000818154811061033c5761033b6107af565b5b9060005260206000200160009054906101000a900473ffffffffffffffffffffffffffffffffffffffff1691508173ffffffffffffffffffffffffffffffffffffffff166108fc61038b6101db565b9081150290604051600060405180830381858888f193505050501580156103b6573d6000803e3d6000fd5b50600067ffffffffffffffff8111156103d2576103d16107de565b5b6040519080825280602002602001820160405280156104005781602001602082028036833780820191505090505b5060009080519060200190610416929190610495565b50505050565b600044426000805490506040516020016104389392919061082e565b6040516020818303038152906040528051906020012060001c905090565b6000818154811061046657600080fd5b906000526020600020016000915054906101000a900473ffffffffffffffffffffffffffffffffffffffff1681565b82805482825590600052602060002090810192821561050e579160200282015b8281111561050d5782518260006101000a81548173ffffffffffffffffffffffffffffffffffffffff021916908373ffffffffffffffffffffffffffffffffffffffff160217905550916020019190600101906104b5565b5b50905061051b919061051f565b5090565b5b80821115610538576000816000905550600101610520565b5090565b600082825260208201905092915050565b7f6120706c61796572206d7573742073656e6420302e3120657468657200000000600082015250565b6000610583601c8361053c565b915061058e8261054d565b602082019050919050565b600060208201905081810360008301526105b281610576565b9050919050565b6000819050919050565b6105cc816105b9565b82525050565b60006020820190506105e760008301846105c3565b92915050565b600073ffffffffffffffffffffffffffffffffffffffff82169050919050565b6000610618826105ed565b9050919050565b6106288161060d565b82525050565b6000602082019050610643600083018461061f565b92915050565b600080fd5b610657816105b9565b811461066257600080fd5b50565b6000813590506106748161064e565b92915050565b6000602082840312156106905761068f610649565b5b600061069e84828501610665565b91505092915050565b60006106b2826105ed565b9050919050565b6106c2816106a7565b82525050565b60006020820190506106dd60008301846106b9565b92915050565b7f6f6e6c79206d616e616765722063616e20616363657373206974000000000000600082015250565b6000610719601a8361053c565b9150610724826106e3565b602082019050919050565b600060208201905081810360008301526107488161070c565b9050919050565b7f4e487b7100000000000000000000000000000000000000000000000000000000600052601260045260246000fd5b6000610789826105b9565b9150610794836105b9565b9250826107a4576107a361074f565b5b828206905092915050565b7f4e487b7100000000000000000000000000000000000000000000000000000000600052603260045260246000fd5b7f4e487b7100000000000000000000000000000000000000000000000000000000600052604160045260246000fd5b6000819050919050565b610828610823826105b9565b61080d565b82525050565b600061083a8286610817565b60208201915061084a8285610817565b60208201915061085a8284610817565b60208201915081905094935050505056fea2646970667358221220f03f899ea31e071d0b217294f1e4ed4c2c146d017beb4cd10f5edf7f800c05e164736f6c63430008100033",
  "immutableReferences": {},
  "source": "\n// SPDX-License-Identifier: GPL-3.0\npragma solidity >=0.7.0 <0.9.0;\n\n\n\ncontract Lottery{\n    // as one of the player in the array will be winner \n    // and will recive all the funds that's we declare it as \n    // payable\n    // with playable - we can send ether to it\n    address payable[] public players;\n\n    // the lotter will also have a manager which is externally owned the \n    // account that deployes the contract, start the lottery, picks the winne and resets\n    //it for the next round\n     address public manager;\n\n     constructor(){\n         manager= msg.sender;\n         // challenge - 2\n           // adding the manager to the lottery\n       //  players.push(payable(manager));\n     }\n\n\n   // how someone can enter in the lottery\n\n   // - a user enters the lottery simply by using a wallet to send 0.1 eth\n   // to the contract address, the user address will be dynamically added to player array\n   // and the sent amount will be added to contract balance\n\n  // declaring recieve function for the contract to receive ether\n\n  // this function cant have arguments cant return anything also must have external visibilty\n     receive() external payable{\n\n         // challenge 1 \n         // the manager can not participate in the lottery\n        //require(msg.sender != manager);\n\n        // every user will send 0.1 eth - if user wants more chances to winthen they do more \n        // trasaction\n\n       //  require(msg.value==100000000000000000); instead of this\n         require(msg.value==0.1 ether,'a player must send 0.1 ether'); // if there is any piece of code before require that will consume gas\n\n        // here we add address that sends eth to the contract in the player's array\n        players.push(payable(msg.sender)); // now anyone how sends eth will be added to the players array\n        \n\n\n     } \n\n    // method to return contracts balance in wei\n    function getBalance() public view returns(uint){\n        require(msg.sender==manager,'only manager can access it');\n        return address(this).balance;\n    }\n\n\n    // how to select winner of the lottery\n    // after entering into the lottery the manager can randomly selects the winner\n\n  \n    function RandomGenerator() public view returns(uint){\n         \n         // this will take a single argument of type bytes \n         // this argument is a func that perform packed encoding of the given arguments\n         // and return a variable of type bytes\n       return uint(keccak256(abi.encodePacked(block.difficulty,block.timestamp,players.length))); // this method will compute the hash of the input using\n        //keccak256 has algorithm\n\n\n        // Chainlink VRF use for random number generation in solidity\n\n    }\n\n\n    // method to picks the winner and transfer the entire eth amount to the winner\n    function pickWinner() public{\n   //challenge -3\n        // anyone can pick the winner if there are at least 10 players in the lottery\n        // require(msg.sender == manager);  // anyone can pick the winner\n       // require (players.length >= 10);\n\n\n        require(msg.sender==manager);\n        require(players.length>=3);\n        uint r = RandomGenerator();\n        address payable winner;\n        uint index= r % players.length;\n        winner= players[index];\n        winner.transfer(getBalance());\n\n\n      // challenge -4  - manager can receive 10% of lottery fund\n        // uint managerFee = (getBalance() * 10 ) / 100; // manager fee is 10%\n        // uint winnerPrize = (getBalance() * 90 ) / 100;     // winner prize is 90%\n        \n        // transferring 90% of contract's balance to the winner\n       // winner.transfer(winnerPrize);\n        \n        // transferring 10% of contract's balance to the manager\n      //  payable(manager).transfer(managerFee);\n\n\n\n    // reset the lottery to be ready for the next round\n    // we simply do that by resetting the players dynamic array\n    // 0 means the size of new dynamic array\n      players = new address payable[](0);\n\n          }\n\n\n\n\n\n\n}",
  "sourcePath": "/home/tuba/Work-Folder/BlockChain-Developement/Auction-Dapp-Project/src/contracts/Lottery.sol",
  "compiler": {
    "name": "solc",
    "version": "0.8.16+commit.07a7930e.Emscripten.clang"
  },
  "schemaVersion": "3.4.9",
  "updatedAt": "2022-09-03T16:45:28.873Z",
  "devdoc": {
    "kind": "dev",
    "methods": {},
    "version": 1
  },
  "userdoc": {
    "kind": "user",
    "methods": {},
    "version": 1
  }
}