{
  "contractName": "Lottery",
  "abi": [
    {
      "inputs": [],
      "stateMutability": "nonpayable",
      "type": "constructor"
    },
    {
      "anonymous": false,
      "inputs": [
        {
          "indexed": false,
          "internalType": "uint256",
          "name": "price",
          "type": "uint256"
        }
      ],
      "name": "AmountReceive",
      "type": "event"
    },
    {
      "inputs": [],
      "name": "manager",
      "outputs": [
        {
          "internalType": "address",
          "name": "",
          "type": "address"
        }
      ],
      "stateMutability": "view",
      "type": "function"
    },
    {
      "inputs": [],
      "name": "name",
      "outputs": [
        {
          "internalType": "string",
          "name": "",
          "type": "string"
        }
      ],
      "stateMutability": "view",
      "type": "function"
    },
    {
      "inputs": [
        {
          "internalType": "uint256",
          "name": "",
          "type": "uint256"
        }
      ],
      "name": "players",
      "outputs": [
        {
          "internalType": "address payable",
          "name": "",
          "type": "address"
        }
      ],
      "stateMutability": "view",
      "type": "function"
    },
    {
      "stateMutability": "payable",
      "type": "receive"
    },
    {
      "inputs": [],
      "name": "getBalance",
      "outputs": [
        {
          "internalType": "uint256",
          "name": "",
          "type": "uint256"
        }
      ],
      "stateMutability": "view",
      "type": "function"
    },
    {
      "inputs": [],
      "name": "RandomGenerator",
      "outputs": [
        {
          "internalType": "uint256",
          "name": "",
          "type": "uint256"
        }
      ],
      "stateMutability": "view",
      "type": "function"
    },
    {
      "inputs": [],
      "name": "pickWinner",
      "outputs": [],
      "stateMutability": "nonpayable",
      "type": "function"
    }
  ],
  "bytecode": "0x60806040523480156200001157600080fd5b506040518060400160405280601481526020017f4c6f747465727920446170702050726f6a656374000000000000000000000000815250600190816200005891906200031a565b5033600260006101000a81548173ffffffffffffffffffffffffffffffffffffffff021916908373ffffffffffffffffffffffffffffffffffffffff16021790555062000401565b600081519050919050565b7f4e487b7100000000000000000000000000000000000000000000000000000000600052604160045260246000fd5b7f4e487b7100000000000000000000000000000000000000000000000000000000600052602260045260246000fd5b600060028204905060018216806200012257607f821691505b602082108103620001385762000137620000da565b5b50919050565b60008190508160005260206000209050919050565b60006020601f8301049050919050565b600082821b905092915050565b600060088302620001a27fffffffffffffffffffffffffffffffffffffffffffffffffffffffffffffffff8262000163565b620001ae868362000163565b95508019841693508086168417925050509392505050565b6000819050919050565b6000819050919050565b6000620001fb620001f5620001ef84620001c6565b620001d0565b620001c6565b9050919050565b6000819050919050565b6200021783620001da565b6200022f620002268262000202565b84845462000170565b825550505050565b600090565b6200024662000237565b620002538184846200020c565b505050565b5b818110156200027b576200026f6000826200023c565b60018101905062000259565b5050565b601f821115620002ca5762000294816200013e565b6200029f8462000153565b81016020851015620002af578190505b620002c7620002be8562000153565b83018262000258565b50505b505050565b600082821c905092915050565b6000620002ef60001984600802620002cf565b1980831691505092915050565b60006200030a8383620002dc565b9150826002028217905092915050565b6200032582620000a0565b67ffffffffffffffff811115620003415762000340620000ab565b5b6200034d825462000109565b6200035a8282856200027f565b600060209050601f8311600181146200039257600084156200037d578287015190505b620003898582620002fc565b865550620003f9565b601f198416620003a2866200013e565b60005b82811015620003cc57848901518255600182019150602085019450602081019050620003a5565b86831015620003ec5784890151620003e8601f891682620002dc565b8355505b6001600288020188555050505b505050505050565b610b0680620004116000396000f3fe6080604052600436106100595760003560e01c806306fdde031461015157806312065fe01461017c578063481c6a75146101a75780635d495aea146101d257806360aa398d146101e9578063f71d96cb146102145761014c565b3661014c57670de0b6b3a764000034146100a8576040517f08c379a000000000000000000000000000000000000000000000000000000000815260040161009f9061069d565b60405180910390fd5b6000339080600181540180825580915050600190039060005260206000200160009091909190916101000a81548173ffffffffffffffffffffffffffffffffffffffff021916908373ffffffffffffffffffffffffffffffffffffffff1602179055507f45df2951ae437cc40d4945f88ff7b35a64bf967187bd826ef4d10575d04eb8ac670de0b6b3a7640000604051610142919061070c565b60405180910390a1005b600080fd5b34801561015d57600080fd5b50610166610251565b60405161017391906107a6565b60405180910390f35b34801561018857600080fd5b506101916102df565b60405161019e91906107d7565b60405180910390f35b3480156101b357600080fd5b506101bc610377565b6040516101c99190610833565b60405180910390f35b3480156101de57600080fd5b506101e761039d565b005b3480156101f557600080fd5b506101fe610520565b60405161020b91906107d7565b60405180910390f35b34801561022057600080fd5b5061023b6004803603810190610236919061087f565b61055a565b60405161024891906108cd565b60405180910390f35b6001805461025e90610917565b80601f016020809104026020016040519081016040528092919081815260200182805461028a90610917565b80156102d75780601f106102ac576101008083540402835291602001916102d7565b820191906000526020600020905b8154815290600101906020018083116102ba57829003601f168201915b505050505081565b6000600260009054906101000a900473ffffffffffffffffffffffffffffffffffffffff1673ffffffffffffffffffffffffffffffffffffffff163373ffffffffffffffffffffffffffffffffffffffff1614610371576040517f08c379a000000000000000000000000000000000000000000000000000000000815260040161036890610994565b60405180910390fd5b47905090565b600260009054906101000a900473ffffffffffffffffffffffffffffffffffffffff1681565b600260009054906101000a900473ffffffffffffffffffffffffffffffffffffffff1673ffffffffffffffffffffffffffffffffffffffff163373ffffffffffffffffffffffffffffffffffffffff16146103f757600080fd5b6003600080549050101561040a57600080fd5b6000610414610520565b90506000806000805490508361042a91906109e3565b9050600081815481106104405761043f610a14565b5b9060005260206000200160009054906101000a900473ffffffffffffffffffffffffffffffffffffffff1691508173ffffffffffffffffffffffffffffffffffffffff166108fc61048f6102df565b9081150290604051600060405180830381858888f193505050501580156104ba573d6000803e3d6000fd5b50600067ffffffffffffffff8111156104d6576104d5610a43565b5b6040519080825280602002602001820160405280156105045781602001602082028036833780820191505090505b506000908051906020019061051a929190610599565b50505050565b6000444260008054905060405160200161053c93929190610a93565b6040516020818303038152906040528051906020012060001c905090565b6000818154811061056a57600080fd5b906000526020600020016000915054906101000a900473ffffffffffffffffffffffffffffffffffffffff1681565b828054828255906000526020600020908101928215610612579160200282015b828111156106115782518260006101000a81548173ffffffffffffffffffffffffffffffffffffffff021916908373ffffffffffffffffffffffffffffffffffffffff160217905550916020019190600101906105b9565b5b50905061061f9190610623565b5090565b5b8082111561063c576000816000905550600101610624565b5090565b600082825260208201905092915050565b7f6120706c61796572206d7573742073656e642031206574686572000000000000600082015250565b6000610687601a83610640565b915061069282610651565b602082019050919050565b600060208201905081810360008301526106b68161067a565b9050919050565b6000819050919050565b6000819050919050565b6000819050919050565b60006106f66106f16106ec846106bd565b6106d1565b6106c7565b9050919050565b610706816106db565b82525050565b600060208201905061072160008301846106fd565b92915050565b600081519050919050565b60005b83811015610750578082015181840152602081019050610735565b60008484015250505050565b6000601f19601f8301169050919050565b600061077882610727565b6107828185610640565b9350610792818560208601610732565b61079b8161075c565b840191505092915050565b600060208201905081810360008301526107c0818461076d565b905092915050565b6107d1816106c7565b82525050565b60006020820190506107ec60008301846107c8565b92915050565b600073ffffffffffffffffffffffffffffffffffffffff82169050919050565b600061081d826107f2565b9050919050565b61082d81610812565b82525050565b60006020820190506108486000830184610824565b92915050565b600080fd5b61085c816106c7565b811461086757600080fd5b50565b60008135905061087981610853565b92915050565b6000602082840312156108955761089461084e565b5b60006108a38482850161086a565b91505092915050565b60006108b7826107f2565b9050919050565b6108c7816108ac565b82525050565b60006020820190506108e260008301846108be565b92915050565b7f4e487b7100000000000000000000000000000000000000000000000000000000600052602260045260246000fd5b6000600282049050600182168061092f57607f821691505b602082108103610942576109416108e8565b5b50919050565b7f6f6e6c79206d616e616765722063616e20616363657373206974000000000000600082015250565b600061097e601a83610640565b915061098982610948565b602082019050919050565b600060208201905081810360008301526109ad81610971565b9050919050565b7f4e487b7100000000000000000000000000000000000000000000000000000000600052601260045260246000fd5b60006109ee826106c7565b91506109f9836106c7565b925082610a0957610a086109b4565b5b828206905092915050565b7f4e487b7100000000000000000000000000000000000000000000000000000000600052603260045260246000fd5b7f4e487b7100000000000000000000000000000000000000000000000000000000600052604160045260246000fd5b6000819050919050565b610a8d610a88826106c7565b610a72565b82525050565b6000610a9f8286610a7c565b602082019150610aaf8285610a7c565b602082019150610abf8284610a7c565b60208201915081905094935050505056fea2646970667358221220a1055bcc8e962006ecb6b366e577a5c4f22f9fd6db10ea7a3aaa1d6caffbc72664736f6c63430008100033",
  "immutableReferences": {},
  "source": "\n// SPDX-License-Identifier: GPL-3.0\npragma solidity >=0.7.0 <0.9.0;\n\n\n\ncontract Lottery{\n    // as one of the player in the array will be winner \n    // and will recive all the funds that's we declare it as \n    // payable\n    // with playable - we can send ether to it\n    address payable[] public players;\n    string public name;\n\n    // the lotter will also have a manager which is externally owned the \n    // account that deployes the contract, start the lottery, picks the winne and resets\n    //it for the next round\n     address public manager;\n\n     constructor(){\n         name = \"Lottery Dapp Project\";\n         manager= msg.sender;\n         // challenge - 2\n           // adding the manager to the lottery\n       //  players.push(payable(manager));\n     }\n\n   \n    event AmountReceive(\n        uint price\n    );\n   \n   // how someone can enter in the lottery\n\n   // - a user enters the lottery simply by using a wallet to send 0.1 eth\n   // to the contract address, the user address will be dynamically added to player array\n   // and the sent amount will be added to contract balance\n\n  // declaring recieve function for the contract to receive ether\n\n  // this function cant have arguments cant return anything also must have external visibilty\n     receive() external payable{\n\n         // challenge 1 \n         // the manager can not participate in the lottery\n        //require(msg.sender != manager);\n\n        // every user will send 0.1 eth - if user wants more chances to winthen they do more \n        // trasaction\n\n       //  require(msg.value==100000000000000000); instead of this\n         require(msg.value==1 ether,'a player must send 1 ether'); // if there is any piece of code before require that will consume gas\n\n        // here we add address that sends eth to the contract in the player's array\n        players.push(payable(msg.sender)); // now anyone how sends eth will be added to the players array\n        \n        emit AmountReceive(1 ether);\n\n     } \n\n    // method to return contracts balance in wei\n    function getBalance() public view returns(uint){\n        require(msg.sender==manager,'only manager can access it');\n        return address(this).balance;\n    }\n\n\n    // how to select winner of the lottery\n    // after entering into the lottery the manager can randomly selects the winner\n\n  \n    function RandomGenerator() public view returns(uint){\n         \n         // this will take a single argument of type bytes \n         // this argument is a func that perform packed encoding of the given arguments\n         // and return a variable of type bytes\n       return uint(keccak256(abi.encodePacked(block.difficulty,block.timestamp,players.length))); // this method will compute the hash of the input using\n        //keccak256 has algorithm\n\n\n        // Chainlink VRF use for random number generation in solidity\n\n    }\n\n\n    // method to picks the winner and transfer the entire eth amount to the winner\n    function pickWinner() public{\n   //challenge -3\n        // anyone can pick the winner if there are at least 10 players in the lottery\n        // require(msg.sender == manager);  // anyone can pick the winner\n       // require (players.length >= 10);\n\n\n        require(msg.sender==manager);\n        require(players.length>=3);\n        uint r = RandomGenerator();\n        address payable winner;\n        uint index= r % players.length;\n        winner= players[index];\n        winner.transfer(getBalance());\n\n\n      // challenge -4  - manager can receive 10% of lottery fund\n        // uint managerFee = (getBalance() * 10 ) / 100; // manager fee is 10%\n        // uint winnerPrize = (getBalance() * 90 ) / 100;     // winner prize is 90%\n        \n        // transferring 90% of contract's balance to the winner\n       // winner.transfer(winnerPrize);\n        \n        // transferring 10% of contract's balance to the manager\n      //  payable(manager).transfer(managerFee);\n\n\n\n    // reset the lottery to be ready for the next round\n    // we simply do that by resetting the players dynamic array\n    // 0 means the size of new dynamic array\n      players = new address payable[](0);\n\n          }\n\n\n\n\n\n\n}",
  "sourcePath": "/home/tuba/Work-Folder/BlockChain-Developement/Dapp_Lottery_System/src/contracts/Lottery.sol",
  "compiler": {
    "name": "solc",
    "version": "0.8.16+commit.07a7930e.Emscripten.clang"
  },
  "schemaVersion": "3.4.9",
  "updatedAt": "2022-09-05T09:15:34.502Z",
  "devdoc": {
    "kind": "dev",
    "methods": {},
    "version": 1
  },
  "userdoc": {
    "kind": "user",
    "methods": {},
    "version": 1
  }
}